:020000040000FA
:100000000A128A11EC2FFF0000308A007F08820755
:1000100008280A128A11C12D0A128A11682E0A12A2
:100020008A112D2E0A128A11452D0A128A11F72CD7
:100030000A128A11EA2C0A128A115C2D0A128A11FC
:10004000EF2CFF1B2B2883137F1883170008840ACB
:100050000319FF0A080000308A000408840A820796
:10006000003431343234333441343434353436347A
:10007000423437343834393443342A343034233436
:10008000443404340A34043400340034003400347A
:1000900000344534553453344134523454342034CC
:1000A00020342034203420342034203420342034B0
:1000B0002034203400344634723461346D34693471
:1000C0006E34673420344534723472346F34723491
:1000D00000344F34763465347234723475346E348F
:0E00E00020344534723472346F34723400347C
:1009D400831203131A08EE2C0800831203130C0E5F
:1009E400F000700C0139F62C080083120313860101
:1009F4008316031789010F308316031386009501AC
:100A0400811783120313C401C3010800F50075089C
:100A1400F40006300310F40DFF3E031D0C2D730883
:100A240074077F39803E0A128A11BC260A128A1181
:100A340008007E088A007F0882000A128A111B259A
:100A44000A128A118000840A04087D0603190034FE
:100A5400FF0A0319FE0A1F2D3D2DC730F200322D67
:100A6400F20B312D352D362D0130F0020030031CF0
:100A7400F103F1023D2D70087104031D422D432D35
:100A84002F2D442D08007108831603139A00700853
:100A94009900181283160317871583160313181564
:100AA40083120313981783160313981683120313E0
:100AB4001816080083120313181D612D622D662D6C
:100AC4000130722D722D722D981C692D6A2D6E2D98
:100AD4000230722D722D722D0030722D722D722DF6
:100AE40008001034163413340034003400340A344B
:100AF4000434073401340034003400340034003446
:100B0400003400340D342034203420342034203494
:100B14002034203420342034203420342034203431
:100B24002034203420342034F100831203130816B7
:100B34007108F00004300310F00CFF3E031D9D2DDE
:100B440008087006F0397006880088120D30F0002D
:100B5400F00BAA2D83120313881608160F307105A3
:100B6400F00008087006F0397006880088120D300D
:100B7400F000F00BBB2D83120313881608007708CE
:100B8400FA007A08F30076080A128A1108250A1274
:100B94008A11E12D790883120313FF007808840079
:100BA4000A128A1121200A128A110A128A11962520
:100BB4000A128A110130F8070318F90AE12D79089D
:100BC40083120313FF00780884000A128A1121207B
:100BD4000A128A11003A031DF02DF12DCC2DF22DAD
:100BE4000800F5007508F40002300310F40DFF3E10
:100BF400031DF72D0310740D3F39403E0A128A116C
:100C0400BC260A128A11F60108307602031C0B2E48
:100C14000C2E0E2E262E262E7608730784000A121A
:100C24008A112B200A128A110A128A1196250A1295
:100C34008A110130F4007408F60708307602031CA8
:100C4400242E252E0E2E262E01300A128A11BC26A1
:100C54000A128A110800F30100300A128A110825C9
:100C64000A128A115A2E760884000A128A112B203D
:100C74000A128A110A3A031D402E412E492EF3010D
:100C840001300A128A1108250A128A11492E76089F
:100C940084000A128A112B200A128A110A128A115C
:100CA40096250A128A110130F7007708F6075A2EA2
:100CB400760884000A128A112B200A128A11003A3B
:100CC400031D652E662E352E672E08006430F00055
:100CD4000030F1000A128A112E250A128A11831695
:100CE40003130810881008118811081288120817B5
:100CF40088176430F0000030F1000A128A112E25A2
:100D04000A128A1183120313881628300A128A11D0
:100D1400BC260A128A110C300A128A11BC260A1245
:100D24008A1101300A128A11BC260A128A11023071
:100D34000A128A11BC260A128A116430F0000030AB
:100D4400F1000A128A112E250A128A111130F700B5
:100D54007708F30001300A128A11F3250A128A1166
:100D64006430F0000030F1000A128A112E250A12B4
:100D74008A110800F2008312031308127208F000AB
:100D840004300310F00CFF3E031DC32E0808700648
:100D9400F03970068800881272030319D22ED32EFC
:100DA400DA2E02307206031DD82ED92EE42EDA2E46
:100DB4000330F1009730F000F00BDE2EF10BDE2E45
:100DC400E32EE92E0D30F000F00BE62EE92E83120F
:100DD40003138816F0307205F00020307006031DEE
:100DE400F42EF52E0C2F08127208F00004300310B4
:100DF400F00CFF3E031DF92E08087006F03970064A
:100E0400880088120D30F000F00B062F83120313B4
:100E140088160C2F08120F307205F00008087006AF
:100E2400F039700688008812720303191A2F1B2FD9
:100E3400222F02307206031D202F212F2C2F222F48
:100E44000330F1009730F000F00B262FF10B262F22
:100E54002B2F312F0D30F000F00B2E2F312F83125A
:100E64000313881608008312031327080A128A1131
:100E740003200A128A118312031331080A128A11F9
:100E840003200A128A110030F3000130F200C2304C
:100E9400F1000030F0008312031326080A128A11AD
:100EA40003200A128A11FD01572F1930FB007B0819
:100EB400F6008312031328080A128A1103200A1267
:100EC4008A118312031321080A128A1103200A12B9
:100ED4008A11003A03196F2F702F572FCC2FCC2F64
:100EE400F601F60AF7013930F8008030F900831270
:100EF400031329080A128A1103200A128A11831281
:100F0400031322080A128A1103200A128A11572F86
:100F1400F601F60AF7012B30F8008030F90083124D
:100F2400031329080A128A1103200A128A11831250
:100F3400031322080A128A1103200A128A11572F56
:100F4400A32F8312031320080A128A1103200A1202
:100F54008A11FB007D08323E84007B0883138000E5
:100F64000130FB007B08FD077D080F39FC007C087D
:100F7400FD00F601F60AF7013230F8000030F900FE
:100F84008312031329080A128A1103200A128A11F0
:100F9400572F572F8312031322080A128A11032092
:100FA4000A128A11FB00FC017C08003A0319DB2FAA
:100FB400A32F7B08003A0319A32F013A03198A2FA0
:100FC400033A0319722FA32F572F572F572F0A12A3
:100FD4008A11002883134330FD000530FE0073306E
:100FE400FF00203084000A128A111F250A128A1178
:0C0FF400C301C40183010A128A11352FC9
:04400E00D4E0FFFFFC
:00000001FF
